{
  "_format": "hh-sol-artifact-1",
  "contractName": "HelloWorld",
  "sourceName": "contracts/HelloWorld.sol",
  "abi": [
    {
      "inputs": [],
      "stateMutability": "nonpayable",
      "type": "constructor"
    },
    {
      "inputs": [],
      "name": "HELLO_WORLD_MSG_PREFIX",
      "outputs": [
        {
          "internalType": "string",
          "name": "",
          "type": "string"
        }
      ],
      "stateMutability": "view",
      "type": "function"
    },
    {
      "inputs": [],
      "name": "getHelloWorldMsg",
      "outputs": [
        {
          "internalType": "string",
          "name": "",
          "type": "string"
        }
      ],
      "stateMutability": "view",
      "type": "function"
    },
    {
      "inputs": [],
      "name": "getUsername",
      "outputs": [
        {
          "internalType": "string",
          "name": "",
          "type": "string"
        }
      ],
      "stateMutability": "view",
      "type": "function"
    },
    {
      "inputs": [
        {
          "internalType": "string",
          "name": "_username",
          "type": "string"
        }
      ],
      "name": "setUsername",
      "outputs": [],
      "stateMutability": "nonpayable",
      "type": "function"
    }
  ],
  "bytecode": "0x608060405234801561001057600080fd5b50336000806101000a81548173ffffffffffffffffffffffffffffffffffffffff021916908373ffffffffffffffffffffffffffffffffffffffff1602179055506106b2806100606000396000f3fe608060405234801561001057600080fd5b506004361061004c5760003560e01c806340dd9b0d14610051578063681f3e6d146100d457806394a2d3de14610157578063ed59313a146101da575b600080fd5b610059610295565b6040518080602001828103825283818151815260200191508051906020019080838360005b8381101561009957808201518184015260208101905061007e565b50505050905090810190601f1680156100c65780820380516001836020036101000a031916815260200191505b509250505060405180910390f35b6100dc610425565b6040518080602001828103825283818151815260200191508051906020019080838360005b8381101561011c578082015181840152602081019050610101565b50505050905090810190601f1680156101495780820380516001836020036101000a031916815260200191505b509250505060405180910390f35b61015f6104c7565b6040518080602001828103825283818151815260200191508051906020019080838360005b8381101561019f578082015181840152602081019050610184565b50505050905090810190601f1680156101cc5780820380516001836020036101000a031916815260200191505b509250505060405180910390f35b610293600480360360208110156101f057600080fd5b810190808035906020019064010000000081111561020d57600080fd5b82018360208201111561021f57600080fd5b8035906020019184600183028401116401000000008311171561024157600080fd5b91908080601f016020809104026020016040519081016040528093929190818152602001838380828437600081840152601f19601f820116905080830192505050505050509192919290505050610500565b005b6060806040518060400160405280600381526020017f212121000000000000000000000000000000000000000000000000000000000081525090506040518060400160405280600c81526020017f48654c4c6f20776f526c442000000000000000000000000000000000000000008152506001826040516020018084805190602001908083835b6020831061033f578051825260208201915060208101905060208303925061031c565b6001836020036101000a038019825116818451168082178552505050505050905001838054600181600116156101000203166002900480156103b85780601f106103965761010080835404028352918201916103b8565b820191906000526020600020905b8154815290600101906020018083116103a4575b505082805190602001908083835b602083106103e957805182526020820191506020810190506020830392506103c6565b6001836020036101000a038019825116818451168082178552505050505050905001935050505060405160208183030381529060405291505090565b606060018054600181600116156101000203166002900480601f0160208091040260200160405190810160405280929190818152602001828054600181600116156101000203166002900480156104bd5780601f10610492576101008083540402835291602001916104bd565b820191906000526020600020905b8154815290600101906020018083116104a057829003601f168201915b5050505050905090565b6040518060400160405280600c81526020017f48654c4c6f20776f526c4420000000000000000000000000000000000000000081525081565b60008054906101000a900473ffffffffffffffffffffffffffffffffffffffff1673ffffffffffffffffffffffffffffffffffffffff163373ffffffffffffffffffffffffffffffffffffffff16146105a4576040517f08c379a000000000000000000000000000000000000000000000000000000000815260040180806020018281038252602181526020018061065c6021913960400191505060405180910390fd5b80600190805190602001906105ba9291906105be565b5050565b828054600181600116156101000203166002900490600052602060002090601f016020900481019282601f106105ff57805160ff191683800117855561062d565b8280016001018555821561062d579182015b8281111561062c578251825591602001919060010190610611565b5b50905061063a919061063e565b5090565b5b8082111561065757600081600090555060010161063f565b509056fe4f6e6c79206f776e65722063616e206d6f6469667920757365726e616d65212121a26469706673582212202069695c5569e5413f02c494365dc9b07ea07bc0865932ffed534927654b6d5964736f6c63430007030033",
  "linkReferences": {},
  "deployedLinkReferences": {}
}